{
  "_format": "hh-sol-artifact-1",
  "contractName": "ERC20TokenHome4CardanoV2",
  "sourceName": "contracts/examples/TokenBridgeV2/ERC20TokenHome4CardanoV2.sol",
  "abi": [
    {
      "inputs": [
        {
          "internalType": "address",
          "name": "_wmbGateway",
          "type": "address"
        },
        {
          "internalType": "address",
          "name": "_tokenAddress",
          "type": "address"
        }
      ],
      "stateMutability": "nonpayable",
      "type": "constructor"
    },
    {
      "anonymous": false,
      "inputs": [
        {
          "indexed": false,
          "internalType": "bytes",
          "name": "tokenRemote",
          "type": "bytes"
        }
      ],
      "name": "ConfigTokenRemote",
      "type": "event"
    },
    {
      "anonymous": false,
      "inputs": [
        {
          "indexed": true,
          "internalType": "address",
          "name": "previousOwner",
          "type": "address"
        },
        {
          "indexed": true,
          "internalType": "address",
          "name": "newOwner",
          "type": "address"
        }
      ],
      "name": "OwnershipTransferred",
      "type": "event"
    },
    {
      "anonymous": false,
      "inputs": [
        {
          "indexed": true,
          "internalType": "uint256",
          "name": "fromChainId",
          "type": "uint256"
        },
        {
          "indexed": true,
          "internalType": "bytes",
          "name": "from",
          "type": "bytes"
        },
        {
          "indexed": true,
          "internalType": "address",
          "name": "to",
          "type": "address"
        },
        {
          "indexed": false,
          "internalType": "uint256",
          "name": "amount",
          "type": "uint256"
        }
      ],
      "name": "ReceiveTokenFromRemote",
      "type": "event"
    },
    {
      "anonymous": false,
      "inputs": [
        {
          "indexed": true,
          "internalType": "uint256",
          "name": "toChainId",
          "type": "uint256"
        },
        {
          "indexed": true,
          "internalType": "address",
          "name": "from",
          "type": "address"
        },
        {
          "indexed": false,
          "internalType": "uint256",
          "name": "amount",
          "type": "uint256"
        }
      ],
      "name": "SendTokenToRemote",
      "type": "event"
    },
    {
      "anonymous": false,
      "inputs": [
        {
          "indexed": false,
          "internalType": "uint256",
          "name": "fromChainId",
          "type": "uint256"
        },
        {
          "indexed": false,
          "internalType": "bytes",
          "name": "from",
          "type": "bytes"
        },
        {
          "indexed": false,
          "internalType": "bool",
          "name": "trusted",
          "type": "bool"
        }
      ],
      "name": "SetTrustedRemote",
      "type": "event"
    },
    {
      "inputs": [
        {
          "internalType": "uint256",
          "name": "_remoteChainId",
          "type": "uint256"
        },
        {
          "internalType": "bytes",
          "name": "_tokenRemote",
          "type": "bytes"
        }
      ],
      "name": "configInboundTokenRemote",
      "outputs": [],
      "stateMutability": "nonpayable",
      "type": "function"
    },
    {
      "inputs": [
        {
          "internalType": "uint256",
          "name": "_remoteChainId",
          "type": "uint256"
        },
        {
          "internalType": "bytes",
          "name": "_tokenRemote",
          "type": "bytes"
        }
      ],
      "name": "configOutBoundTokenRemote",
      "outputs": [],
      "stateMutability": "nonpayable",
      "type": "function"
    },
    {
      "inputs": [],
      "name": "inboundTokenRemote",
      "outputs": [
        {
          "internalType": "bytes",
          "name": "",
          "type": "bytes"
        }
      ],
      "stateMutability": "view",
      "type": "function"
    },
    {
      "inputs": [],
      "name": "outboundTokenRemote",
      "outputs": [
        {
          "internalType": "bytes",
          "name": "",
          "type": "bytes"
        }
      ],
      "stateMutability": "view",
      "type": "function"
    },
    {
      "inputs": [],
      "name": "owner",
      "outputs": [
        {
          "internalType": "address",
          "name": "",
          "type": "address"
        }
      ],
      "stateMutability": "view",
      "type": "function"
    },
    {
      "inputs": [
        {
          "internalType": "bytes",
          "name": "cbor",
          "type": "bytes"
        }
      ],
      "name": "parseToMsg",
      "outputs": [
        {
          "components": [
            {
              "components": [
                {
                  "internalType": "bytes",
                  "name": "paymentKey",
                  "type": "bytes"
                },
                {
                  "internalType": "bool",
                  "name": "isPaymentScipt",
                  "type": "bool"
                },
                {
                  "internalType": "bool",
                  "name": "hasStakeKey",
                  "type": "bool"
                },
                {
                  "internalType": "bytes",
                  "name": "stackeKey",
                  "type": "bytes"
                },
                {
                  "internalType": "bool",
                  "name": "isStakeScript",
                  "type": "bool"
                }
              ],
              "internalType": "struct ERC20TokenHome4CardanoV2.AdaAddress",
              "name": "receiverAda",
              "type": "tuple"
            },
            {
              "internalType": "bytes",
              "name": "receiverEvm",
              "type": "bytes"
            },
            {
              "internalType": "bool",
              "name": "isEvmChain",
              "type": "bool"
            },
            {
              "internalType": "uint256",
              "name": "amount",
              "type": "uint256"
            }
          ],
          "internalType": "struct ERC20TokenHome4CardanoV2.CCMesssage",
          "name": "msgInfo",
          "type": "tuple"
        }
      ],
      "stateMutability": "pure",
      "type": "function"
    },
    {
      "inputs": [],
      "name": "remoteChainId",
      "outputs": [
        {
          "internalType": "uint256",
          "name": "",
          "type": "uint256"
        }
      ],
      "stateMutability": "view",
      "type": "function"
    },
    {
      "inputs": [],
      "name": "renounceOwnership",
      "outputs": [],
      "stateMutability": "nonpayable",
      "type": "function"
    },
    {
      "inputs": [
        {
          "internalType": "bytes",
          "name": "plutusData",
          "type": "bytes"
        }
      ],
      "name": "send",
      "outputs": [],
      "stateMutability": "nonpayable",
      "type": "function"
    },
    {
      "inputs": [],
      "name": "tokenAddress",
      "outputs": [
        {
          "internalType": "address",
          "name": "",
          "type": "address"
        }
      ],
      "stateMutability": "view",
      "type": "function"
    },
    {
      "inputs": [
        {
          "internalType": "address",
          "name": "newOwner",
          "type": "address"
        }
      ],
      "name": "transferOwnership",
      "outputs": [],
      "stateMutability": "nonpayable",
      "type": "function"
    },
    {
      "inputs": [
        {
          "internalType": "uint256",
          "name": "",
          "type": "uint256"
        },
        {
          "internalType": "bytes",
          "name": "",
          "type": "bytes"
        }
      ],
      "name": "trustedRemotes",
      "outputs": [
        {
          "internalType": "bool",
          "name": "",
          "type": "bool"
        }
      ],
      "stateMutability": "view",
      "type": "function"
    },
    {
      "inputs": [],
      "name": "wmbGateway",
      "outputs": [
        {
          "internalType": "address",
          "name": "",
          "type": "address"
        }
      ],
      "stateMutability": "view",
      "type": "function"
    },
    {
      "inputs": [
        {
          "internalType": "bytes",
          "name": "data",
          "type": "bytes"
        },
        {
          "internalType": "bytes32",
          "name": "messageId",
          "type": "bytes32"
        },
        {
          "internalType": "uint256",
          "name": "fromChainId",
          "type": "uint256"
        },
        {
          "internalType": "bytes",
          "name": "from",
          "type": "bytes"
        }
      ],
      "name": "wmbReceiveNonEvm",
      "outputs": [],
      "stateMutability": "nonpayable",
      "type": "function"
    }
  ],
  "bytecode": "0x60806040523480156200001157600080fd5b5060405162002c5038038062002c508339810160408190526200003491620000e3565b81620000403362000076565b600180546001600160a01b039283166001600160a01b03199182161790915560038054939092169216919091179055506200011b565b600080546001600160a01b038381166001600160a01b0319831681178455604051919092169283917f8be0079c531659141344cd1fd0a4f28419497f9722a3daafe3b4186f6b6457e09190a35050565b80516001600160a01b0381168114620000de57600080fd5b919050565b60008060408385031215620000f757600080fd5b6200010283620000c6565b91506200011260208401620000c6565b90509250929050565b612b25806200012b6000396000f3fe608060405234801561001057600080fd5b50600436106100ea5760003560e01c80638056e83c1161008c578063c1264e2e11610066578063c1264e2e146101ff578063c6b274ec14610212578063e951819614610225578063f2fde38b1461023c57600080fd5b80638056e83c146101c85780638da5cb5b146101db5780639d76ea58146101ec57600080fd5b80632dbf78cf116100c85780632dbf78cf146101785780632ed1c0ee1461018d5780633088a5f914610195578063715018a6146101c057600080fd5b8063245488b7146100ef57806324f09be6146101435780632bb1ae7c14610163575b600080fd5b61012e6100fd3660046124b5565b6002602090815260009283526040909220815180830184018051928152908401929093019190912091525460ff1681565b60405190151581526020015b60405180910390f35b6101566101513660046124fb565b61024f565b60405161013a919061257f565b6101766101713660046124fb565b610bf6565b005b610180610eea565b60405161013a9190612632565b610180610f78565b6001546101a8906001600160a01b031681565b6040516001600160a01b03909116815260200161013a565b610176610f85565b6101766101d63660046124b5565b610f99565b6000546001600160a01b03166101a8565b6003546101a8906001600160a01b031681565b61017661020d366004612645565b611087565b6101766102203660046124b5565b611189565b61022e60065481565b60405190815260200161013a565b61017661024a3660046126ec565b6111e6565b6040805161012081018252606060808201818152600060a0840181905260c0840181905260e084018390526101008401819052908352602083018290529282018390528101829052906102a18361125f565b90508060600151516001146102fd5760405162461bcd60e51b815260206004820152601960248201527f63622e617272617956616c75652e6c656e677468203d3d20310000000000000060448201526064015b60405180910390fd5b6000816060015160008151811061031657610316612715565b60200260200101519050600460078111156103335761033361272b565b815160078111156103465761034661272b565b146103ae5760405162461bcd60e51b815260206004820152603260248201527f6669656c64732e6d616a6f7254797065203d3d20524643383934394465636f6460448201527165722e4d616a6f72547970652e417272617960701b60648201526084016102f4565b80606001515160021461040f5760405162461bcd60e51b815260206004820152602360248201527f6572726f72206669656c64732e617272617956616c75652e6c656e677468203d6044820152621e901960e91b60648201526084016102f4565b6000816060015160008151811061042857610428612715565b6020026020010151905080608001516079148061044957508060800151607a145b6104955760405162461bcd60e51b815260206004820152601760248201527f746167206e65697468657220313231206e6f722031323200000000000000000060448201526064016102f4565b8060600151516001146104f45760405162461bcd60e51b815260206004820152602160248201527f6d7367416464726573732e617272617956616c75652e6c656e677468203d3d206044820152603160f81b60648201526084016102f4565b608081015160791460408501526060810151805160009190829061051a5761051a612715565b602002602001015190508060600151516001146105895760405162461bcd60e51b815260206004820152602760248201527f6d7367416464726573734669656c64732e617272617956616c75652e6c656e676044820152667468203d3d203160c81b60648201526084016102f4565b600081606001516000815181106105a2576105a2612715565b60200260200101519050856040015115610691576002815160078111156105cb576105cb61272b565b146106355760405162461bcd60e51b815260206004820152603460248201527f72656365697665722e6d616a6f7254797065203d3d20524643383934394465636044820152736f6465722e4d616a6f72547970652e427974657360601b60648201526084016102f4565b601481602001515110156106825760405162461bcd60e51b81526020600482015260146024820152730e4cac6cad2eccae45cc8c2e8c25cd8cadccee8d60631b60448201526064016102f4565b602080820151908701526107e7565b6006815160078111156106a6576106a661272b565b1461070e5760405162461bcd60e51b815260206004820152603260248201527f72656365697665722e6d616a6f7254797065203d3d20524643383934394465636044820152716f6465722e4d616a6f72547970652e54616760701b60648201526084016102f4565b8060600151516001146107635760405162461bcd60e51b815260206004820152601f60248201527f72656365697665722e617272617956616c75652e6c656e677468203d3d20310060448201526064016102f4565b6000816060015160008151811061077c5761077c612715565b602002602001015190508060600151516002146107e55760405162461bcd60e51b815260206004820152602160248201527f616461416464726573732e617272617956616c75652e6c656e677468203d3d206044820152601960f91b60648201526084016102f4565b505b6000846060015160018151811061080057610800612715565b602002602001015160000151600781111561081d5761081d61272b565b0361085357836060015160018151811061083957610839612715565b602002602001015160400151866060018181525050610bec565b6006846060015160018151811061086c5761086c612715565b60200260200101516000015160078111156108895761088961272b565b03610bec5783606001516001815181106108a5576108a5612715565b60200260200101516080015160021461090c5760405162461bcd60e51b815260206004820152602360248201527f6669656c64732e617272617956616c75655b315d2e7461674e756d626572203d6044820152621e901960e91b60648201526084016102f4565b836060015160018151811061092357610923612715565b602002602001015160600151516001146109935760405162461bcd60e51b815260206004820152602b60248201527f6669656c64732e617272617956616c75655b315d2e617272617956616c75652e60448201526a6c656e677468203d3d203160a81b60648201526084016102f4565b600284606001516001815181106109ac576109ac612715565b6020026020010151606001516000815181106109ca576109ca612715565b60200260200101516000015160078111156109e7576109e761272b565b14610a715760405162461bcd60e51b815260206004820152604e60248201527f6669656c64732e617272617956616c75655b315d2e617272617956616c75655b60448201527f305d2e6d616a6f7254797065203d3d20524643383934394465636f6465722e4d60648201526d616a6f72547970652e427974657360901b608482015260a4016102f4565b60018460600151600181518110610a8a57610a8a612715565b602002602001015160600151600081518110610aa857610aa8612715565b602002602001015160200151511015610b1a5760405162461bcd60e51b815260206004820152602e60248201527f6669656c64732e617272617956616c75655b315d2e617272617956616c75655b60448201526d060ba5cc8c2e8c25cd8cadccee8d60931b60648201526084016102f4565b60008460600151600181518110610b3357610b33612715565b602002602001015160600151600081518110610b5157610b51612715565b60200260200101516020015151905060005b81811015610be9578560600151600181518110610b8257610b82612715565b602002602001015160600151600081518110610ba057610ba0612715565b6020026020010151602001518181518110610bbd57610bbd612715565b016020015160608901805160081b60f89290921c91909117905280610be181612757565b915050610b63565b50505b5050505050919050565b60058054610c0390612770565b9050600003610c4a5760405162461bcd60e51b81526020600482015260136024820152721d1bdad95b94995b5bdd19481b9bdd081cd95d606a1b60448201526064016102f4565b6000610c558261024f565b604081015190915015610cb65760405162461bcd60e51b8152602060048201526024808201527f546865205461726765742053686f756c642062652043617264616e6f20436861604482015263034b710960e51b60648201526084016102f4565b606081015180610d085760405162461bcd60e51b815260206004820152601d60248201527f416d6f756e74206d7573742062652067726561746572207468616e203000000060448201526064016102f4565b6003546040516370a0823160e01b81523060048201526000916001600160a01b0316906370a0823190602401602060405180830381865afa158015610d51573d6000803e3d6000fd5b505050506040513d601f19601f82011682018060405250810190610d7591906127aa565b600354909150610d90906001600160a01b031633308561128b565b6003546040516370a0823160e01b81523060048201526000916001600160a01b0316906370a0823190602401602060405180830381865afa158015610dd9573d6000803e3d6000fd5b505050506040513d601f19601f82011682018060405250810190610dfd91906127aa565b90506000610e0b83836127c3565b9050610ea860065460058054610e2090612770565b80601f0160208091040260200160405190810160405280929190818152602001828054610e4c90612770565b8015610e995780601f10610e6e57610100808354040283529160200191610e99565b820191906000526020600020905b815481529060010190602001808311610e7c57829003601f168201915b5050505050620493e0896112fc565b506006546040518281523391907f74c9a17e92c3111fbb591167236463f0bb9c9e1ad176ee0604f5e27a2b25dee69060200160405180910390a3505050505050565b60048054610ef790612770565b80601f0160208091040260200160405190810160405280929190818152602001828054610f2390612770565b8015610f705780601f10610f4557610100808354040283529160200191610f70565b820191906000526020600020905b815481529060010190602001808311610f5357829003601f168201915b505050505081565b60058054610ef790612770565b610f8d611381565b610f9760006113db565b565b610fa1611381565b6004610fad8282612824565b5060068290556004805461104b918491610fc690612770565b80601f0160208091040260200160405190810160405280929190818152602001828054610ff290612770565b801561103f5780601f106110145761010080835404028352916020019161103f565b820191906000526020600020905b81548152906001019060200180831161102257829003601f168201915b5050505050600161142b565b7f97e0f44985abc8800d4148065ffa0513f2fbbfb662ceaba128071ca29034d370600460405161107b91906128e3565b60405180910390a15050565b6001546001600160a01b031633146110f95760405162461bcd60e51b815260206004820152602f60248201527f576d624170703a204f6e6c7920574d4220676174657761792063616e2063616c60448201526e36103a3434b990333ab731ba34b7b760891b60648201526084016102f4565b60008281526002602052604090819020905161111690839061296e565b9081526040519081900360200190205460ff166111755760405162461bcd60e51b815260206004820152601d60248201527f576d624170703a2052656d6f7465206973206e6f74207472757374656400000060448201526064016102f4565b61118285858585856114ac565b5050505050565b611191611381565b600561119d8282612824565b506006829055600580546111b6918491610fc690612770565b7f97e0f44985abc8800d4148065ffa0513f2fbbfb662ceaba128071ca29034d370600560405161107b91906128e3565b6111ee611381565b6001600160a01b0381166112535760405162461bcd60e51b815260206004820152602660248201527f4f776e61626c653a206e6577206f776e657220697320746865207a65726f206160448201526564647265737360d01b60648201526084016102f4565b61125c816113db565b50565b6112676123e3565b604080518082019091528281526000602082015261128481611687565b9392505050565b6040516001600160a01b03808516602483015283166044820152606481018290526112f69085906323b872dd60e01b906084015b60408051601f198184030181529190526020810180516001600160e01b03166001600160e01b031990931692909217909152611836565b50505050565b600154604051637ea6842760e11b81526000916001600160a01b03169063fd4d084e9061133390889088908890889060040161298a565b6020604051808303816000875af1158015611352573d6000803e3d6000fd5b505050506040513d601f19601f8201168201806040525081019061137691906127aa565b90505b949350505050565b6000546001600160a01b03163314610f975760405162461bcd60e51b815260206004820181905260248201527f4f776e61626c653a2063616c6c6572206973206e6f7420746865206f776e657260448201526064016102f4565b600080546001600160a01b038381166001600160a01b0319831681178455604051919092169283917f8be0079c531659141344cd1fd0a4f28419497f9722a3daafe3b4186f6b6457e09190a35050565b80600260008581526020019081526020016000208360405161144d919061296e565b908152604051908190036020018120805492151560ff19909316929092179091557f38524fadd14ddab834bd25bb68ab7b81540e7f020acba13d8392c07934e934d29061149f908590859085906129bb565b60405180910390a1505050565b60006114ed86868080601f01602080910402602001604051908101604052809392919081815260200183838082843760009201919091525061024f92505050565b90508060400151151560011515146115535760405162461bcd60e51b8152602060048201526024808201527f546865205461726765742053686f756c642062652045564d20436861696e54796044820152630383290960e51b60648201526084016102f4565b6000600460405161156491906129e6565b604051908190039020835160208501209091508082146115ec5760405162461bcd60e51b815260206004820152603c60248201527f546f6b656e486f6d653443617264616e6f3a206d736753656e6465722069732060448201527f6e6f74207472757374656420696e626f756e6420636f6e74726163740000000060648201526084016102f4565b6060830151602084015160009061160290612a5c565b60035460609190911c9150611621906001600160a01b03168284611910565b806001600160a01b031686604051611639919061296e565b6040518091039020887f0413562ea8a2242e43e5a3ac57769f8edda06a389d8fb33ae3668e0843af5a5f8560405161167391815260200190565b60405180910390a450505050505050505050565b61168f6123e3565b8151516020830151106116d85760405162461bcd60e51b8152602060048201526011602482015270496e73756666696369656e74206461746160781b60448201526064016102f4565b600082600001518360200151815181106116f4576116f4612715565b01602090810151908401805160f89290921c925061171182612757565b90525060006007600583901c81169081111561172f5761172f61272b565b9050601f821660008260078111156117495761174961272b565b1480611766575060018260078111156117645761176461272b565b145b1561177f57611776858383611940565b95945050505050565b60028260078111156117935761179361272b565b14806117b0575060038260078111156117ae576117ae61272b565b145b156117c0576117768583836119d2565b60048260078111156117d4576117d461272b565b14806117f1575060058260078111156117ef576117ef61272b565b145b1561180157611776858383611b90565b60068260078111156118155761181561272b565b03611824576117768582611d48565b6117768582611d9a565b505050919050565b600061188b826040518060400160405280602081526020017f5361666545524332303a206c6f772d6c6576656c2063616c6c206661696c6564815250856001600160a01b0316611db59092919063ffffffff16565b90508051600014806118ac5750808060200190518101906118ac9190612a94565b61190b5760405162461bcd60e51b815260206004820152602a60248201527f5361666545524332303a204552433230206f7065726174696f6e20646964206e6044820152691bdd081cdd58d8d9595960b21b60648201526084016102f4565b505050565b6040516001600160a01b03831660248201526044810182905261190b90849063a9059cbb60e01b906064016112bf565b6119486123e3565b60006119548584611dc4565b90506001600160401b0381166119686123e3565b8086600781111561197b5761197b61272b565b9081600781111561198e5761198e61272b565b90525060018660078111156119a5576119a561272b565b036119c0576119b6826000196127c3565b60408201526119c8565b604081018290525b9695505050505050565b6119da6123e3565b60006119e68584611dc4565b9050846000015151816001600160401b03168660200151611a079190612ab6565b1115611a4a5760405162461bcd60e51b815260206004820152601260248201527144617461206f7574206f6620626f756e647360701b60448201526064016102f4565b611a526123e3565b80856007811115611a6557611a6561272b565b90816007811115611a7857611a7861272b565b815250506000826001600160401b03166001600160401b03811115611a9f57611a9f612413565b6040519080825280601f01601f191660200182016040528015611ac9576020820181803683370190505b50905060005b836001600160401b0316816001600160401b03161015611b635787516020890151611b04906001600160401b03841690612ab6565b81518110611b1457611b14612715565b602001015160f81c60f81b82826001600160401b031681518110611b3a57611b3a612715565b60200101906001600160f81b031916908160001a90535080611b5b81612ac9565b915050611acf565b50826001600160401b031687602001818151611b7f9190612ab6565b905250602082015295945050505050565b611b986123e3565b6000611ba48584611dc4565b9050611bae6123e3565b80856007811115611bc157611bc161272b565b90816007811115611bd457611bd461272b565b9052506004856007811115611beb57611beb61272b565b036117765767fffffffffffffffe196001600160401b03831601611c7b575b8551516020870151108015611c3e57508551602087015181518110611c3157611c31612715565b60209101015160f81c60ff145b15611c5b5760208601805190611c5382612757565b905250611776565b611c718160600151611c6c88611687565b612188565b6060820152611c0a565b816001600160401b03166001600160401b03811115611c9c57611c9c612413565b604051908082528060200260200182016040528015611cd557816020015b611cc26123e3565b815260200190600190039081611cba5790505b50606082015260005b826001600160401b0316816001600160401b03161015611d3e57611d0187611687565b8260600151826001600160401b031681518110611d2057611d20612715565b60200260200101819052508080611d3690612ac9565b915050611cde565b5095945050505050565b611d506123e3565b6000611d5c8484611dc4565b9050611d666123e3565b600681526001600160401b03821660808201526060810151611d8b90611c6c87611687565b60608201529150505b92915050565b611da26123e3565b611daa6123e3565b600781529392505050565b6060611379848460008561226a565b600060188260ff161015611ddc575060ff8116611d94565b8160ff16601803611e1a57825160208401805190611df982612757565b905281518110611e0b57611e0b612715565b016020015160f81c9050611d94565b8160ff16601903611eae5782516020840151611e37906001612ab6565b81518110611e4757611e47612715565b602001015160f81c60f81b60f81c60ff1660088460000151856020015181518110611e7457611e74612715565b602001015160f81c60f81b60f81c60ff166001600160401b0316901b179050600283602001818151611ea69190612ab6565b905250611d94565b8160ff16601a03611fa25782516020840151611ecb906003612ab6565b81518110611edb57611edb612715565b0160209081015184519185015160f89190911c91600891611efd906002612ab6565b81518110611f0d57611f0d612715565b0160209081015186519187015160f89190911c90921b9160109190611f33906001612ab6565b81518110611f4357611f43612715565b01602090810151875191880151825160f89290921c90931b92601892918110611f6e57611f6e612715565b602001015160f81c60f81b60f81c60ff166001600160401b0316901b1717179050600483602001818151611ea69190612ab6565b8160ff16601b0361216f5782516020840151611fbf906007612ab6565b81518110611fcf57611fcf612715565b0160209081015184519185015160f89190911c91600891611ff1906006612ab6565b8151811061200157612001612715565b0160209081015186519187015160f89190911c90921b9160109190612027906005612ab6565b8151811061203757612037612715565b0160209081015187519188015160f89190911c90921b916018919061205d906004612ab6565b8151811061206d5761206d612715565b0160209081015188518983015160f89290921c90931b9290612090906003612ab6565b815181106120a0576120a0612715565b016020908101518951918a015160f89190911c90921b91602891906120c6906002612ab6565b815181106120d6576120d6612715565b016020908101518a51918b015160f89190911c90921b91603091906120fc906001612ab6565b8151811061210c5761210c612715565b016020908101518b51918c0151825160f89290921c90931b9260389291811061213757612137612715565b602001015160f81c60f81b60f81c60ff166001600160401b0316901b171717171717179050600883602001818151611ea69190612ab6565b8160ff16601f03611d9457506001600160401b03611d94565b606060008351600161219a9190612ab6565b6001600160401b038111156121b1576121b1612413565b6040519080825280602002602001820160405280156121ea57816020015b6121d76123e3565b8152602001906001900390816121cf5790505b50905060005b84518110156122435784818151811061220b5761220b612715565b602002602001015182828151811061222557612225612715565b6020026020010181905250808061223b90612757565b9150506121f0565b50828185518151811061225857612258612715565b60209081029190910101529392505050565b6060824710156122cb5760405162461bcd60e51b815260206004820152602660248201527f416464726573733a20696e73756666696369656e742062616c616e636520666f6044820152651c8818d85b1b60d21b60648201526084016102f4565b600080866001600160a01b031685876040516122e7919061296e565b60006040518083038185875af1925050503d8060008114612324576040519150601f19603f3d011682016040523d82523d6000602084013e612329565b606091505b509150915061233a87838387612345565b979650505050505050565b606083156123b45782516000036123ad576001600160a01b0385163b6123ad5760405162461bcd60e51b815260206004820152601d60248201527f416464726573733a2063616c6c20746f206e6f6e2d636f6e747261637400000060448201526064016102f4565b5081611379565b61137983838151156123c95781518083602001fd5b8060405162461bcd60e51b81526004016102f49190612632565b6040805160a081019091528060008152602001606081526020016000815260200160608152602001600081525090565b634e487b7160e01b600052604160045260246000fd5b600082601f83011261243a57600080fd5b81356001600160401b038082111561245457612454612413565b604051601f8301601f19908116603f0116810190828211818310171561247c5761247c612413565b8160405283815286602085880101111561249557600080fd5b836020870160208301376000602085830101528094505050505092915050565b600080604083850312156124c857600080fd5b8235915060208301356001600160401b038111156124e557600080fd5b6124f185828601612429565b9150509250929050565b60006020828403121561250d57600080fd5b81356001600160401b0381111561252357600080fd5b61137984828501612429565b60005b8381101561254a578181015183820152602001612532565b50506000910152565b6000815180845261256b81602086016020860161252f565b601f01601f19169290920160200192915050565b602081526000825160806020840152805160a0808501526125a4610140850182612553565b90506020820151151560c08501526040820151151560e08501526060820151609f19858303016101008601526125da8282612553565b60809390930151151561012086015250506020840151838203601f19016040850152906126078183612553565b915050604084015161261d606085018215159052565b50606084015160808401528091505092915050565b6020815260006112846020830184612553565b60008060008060006080868803121561265d57600080fd5b85356001600160401b038082111561267457600080fd5b818801915088601f83011261268857600080fd5b81358181111561269757600080fd5b8960208285010111156126a957600080fd5b60209283019750955090870135935060408701359250606087013590808211156126d257600080fd5b506126df88828901612429565b9150509295509295909350565b6000602082840312156126fe57600080fd5b81356001600160a01b038116811461128457600080fd5b634e487b7160e01b600052603260045260246000fd5b634e487b7160e01b600052602160045260246000fd5b634e487b7160e01b600052601160045260246000fd5b60006001820161276957612769612741565b5060010190565b600181811c9082168061278457607f821691505b6020821081036127a457634e487b7160e01b600052602260045260246000fd5b50919050565b6000602082840312156127bc57600080fd5b5051919050565b81810381811115611d9457611d94612741565b601f82111561190b57600081815260208120601f850160051c810160208610156127fd5750805b601f850160051c820191505b8181101561281c57828155600101612809565b505050505050565b81516001600160401b0381111561283d5761283d612413565b6128518161284b8454612770565b846127d6565b602080601f831160018114612886576000841561286e5750858301515b600019600386901b1c1916600185901b17855561281c565b600085815260208120601f198616915b828110156128b557888601518255948401946001909101908401612896565b50858210156128d35787850151600019600388901b60f8161c191681555b5050505050600190811b01905550565b60006020808352600084546128f781612770565b80848701526040600180841660008114612918576001811461293257612960565b60ff1985168984015283151560051b890183019550612960565b896000528660002060005b858110156129585781548b820186015290830190880161293d565b8a0184019650505b509398975050505050505050565b6000825161298081846020870161252f565b9190910192915050565b8481526080602082015260006129a36080830186612553565b846040840152828103606084015261233a8185612553565b8381526060602082015260006129d46060830185612553565b90508215156040830152949350505050565b60008083546129f481612770565b60018281168015612a0c5760018114612a2157612a50565b60ff1984168752821515830287019450612a50565b8760005260208060002060005b85811015612a475781548a820152908401908201612a2e565b50505082870194505b50929695505050505050565b805160208201516bffffffffffffffffffffffff19808216929190601483101561182e5760149290920360031b82901b161692915050565b600060208284031215612aa657600080fd5b8151801515811461128457600080fd5b80820180821115611d9457611d94612741565b60006001600160401b03808316818103612ae557612ae5612741565b600101939250505056fea2646970667358221220746f062ad19724a23ac828332f4ef5c794df2c81b865049f64d68e6d67128df464736f6c63430008140033",
  "linkReferences": {},
  "deployedLinkReferences": {}
}